:10000000474E3231303401450043E0F4132A0A02EE
:10001000F22201450043BB010689828A83F0225007
:1000200002F722BBFE01F32212077B12302E311899
:1000300002070D206102413C900476E030E002416D
:100040003C90E053E51BF05144540F120310E1556E
:1000500000E16C01E1BC02E1D703E1E804E1E8055D
:10006000E1F806E20207E21208E231090000E23399
:10007000900404E04401F012F171AF1B120B5651D1
:100080004254F04401F022F120243CF58274003EF9
:10009000F583E030E002413A5142FDC41354077049
:1000A0002691605401C454F0FCE51B25E024A4F51E
:1000B00082E434E0F583ED54EF4CF0915F54FEF0B0
:1000C0005142541F4420F0122DAC12EE83C2205135
:1000D0003F54F04402F022F1F78005C333CE33CE13
:1000E000D8F9F1D17008514254F04403F0227F60F6
:1000F000803912E8415008514254F04404F0227F04
:1001000064802851515008514254F04406F0227F37
:10011000688018714B514254F04407F022F1275087
:1001200008514254F04408F0227F6CC1E9513D541B
:1001300010C4540FFDE51B7F00FE915F54FE4DF08F
:100140005142541FF0514254F04409F0800751428B
:1001500054F0440AF0D1F322D220120871E51B2595
:10016000E024A4F582E434E0F583E022E490E0BCEE
:10017000F0A3F090E0BBF0F10012E815400241F46A
:10018000913EE0FF12E913913E913C7135C083C06E
:100190008290E0BBE0D082D0837145913CE0FF12B9
:1001A000E8787137C083C08290E0BBE0D082D08312
:1001B0007145A3EFF012EE6BE0FF12EB3B7137C01D
:1001C00083C08290E0BBE0FED082D0837145A3A3C0
:1001D000EFF0713775F003EE7130C083C08290E0AC
:1001E000BBE0D082D083714512F1EC90E0BCEEF020
:1001F000A3EF914EE0FCA3E0C39FEC9E503390E050
:10020000BCE0FEA3E0FF914FEEF0A3EFF08022717F
:1002100037C083C08290E0BBE0FFD082D0837145BD
:10022000A374FFF0713775F003EF1202DBA3A3E4B0
:10023000F090E0BBE004F0E0C394155002415C9103
:100240004FE0FEA3E04EC36001D3221202DBA3A362
:10025000E0FF851D82851C8375F03FE51B0202DBF4
:1002600075F0030202DB90E0BC7415F0E4A3F0A388
:100270007415914EE0FEA3E0FF7C007D0412033C68
:10028000E47B64FAF9F81201B590E0BFEEF0A3EF59
:10029000F0E490E0BBF090E0BBE0FFC39415506643
:1002A000713775F003EF7130C083C08290E0BBE01E
:1002B000F9D082D083714512F1EC90E0C0E02FFDBF
:1002C00090E0BFE03EFC914FE0FAA3E0D39DEA9CB2
:1002D000501590E0BCE099400690E0BBE0A3F090A0
:1002E000E0BBE090E0BDF090E0BDE06011A3E0B4C1
:1002F000150CEF4E700890E0BBE090E0BEF090E08F
:10030000BBE004F0809090E0BCE0FF700790E0BBA1
:10031000EFF0802A90E0BCE0240590E0BBF0D3949D
:100320001440037414F090E0BEE0FF90E0BBE0C323
:100330009F400BEF24FDF0D394FC4002E4F07137B2
:10034000C083C08290E0BBE0FFD082D0837145E0E3
:10035000FE913EEEF0E108EFF0E51B75F003A424FA
:10036000E4F582E434E0F58322F0E51B75F003A4A4
:1003700024E5F582E434E0F58322EF243DF5827430
:10038000003EF583E022EF514454F0F0228B158AB1
:10039000168917120046F518E4F519E51854FE7091
:1003A00002C1BFE518120310E4C112E4D514E4DE63
:1003B00015E4FE16E52417E54A18E57042E580438A
:1003C000E59150E5D352E62158E63C5AE66160E6F5
:1003D0008564E69965E69E6E0000E6A6E4FF916BF3
:1003E0007F01916B7F02916B7F03916BD261C1A9F9
:1003F00090E006E0FF916BC1A990E006E012F1C821
:10040000E090E017F090E006E09151E0FFA3E0906B
:10041000E018CFF0A3EFF0C1A990E006E0FDE4FF03
:10042000D1C690E007E0FD7F01D1C690E008E0FD75
:100430007F02D1C690E009E0FD7F03D1C6C1A9E4E7
:10044000FFD1C090E017EFF07F01D1C090E018EF2E
:10045000F07F02D1C090E019EFF07F03D1C090E0AF
:100460001AEFF0C1A990E0F7E49390E017F090E064
:10047000F8E49390E018F090E0F9E49390E019F03C
:1004800090E0FAE49390E01AF0C1A912EE7B7EE0CE
:100490007F067CE07D1712144EC1A912EE7B7EE030
:1004A0007F17122BE0D220120871C1A990E006E05C
:1004B000FE540F90E027F0EEC4540F90E03DF09012
:1004C000E007E0FC7E0030E0027E01EE12EFC6FEA7
:1004D00090042CE054F74EF0EC7F0030E1027F01F5
:1004E00012EFC5FF90043EE054F74FF0804690E0D5
:1004F00006E0FC5401FE90E02712F1F530E1027FA6
:1005000001EF12EFBE90E027E054EF4FF090E006CD
:10051000E0FC7E0030E4027E01EE5401FE90E03DFE
:1005200012F1F530E5027F01EF12EFBE90E03DE001
:1005300054EF4FF012ED2E12113CC1A990E006E0ED
:10054000FF121CE290048EE06408707890E006E0F0
:10055000C330E001D3800F90048EE0B4080F90E028
:1005600006E0C36001D3920212EEC1805790E0060C
:10057000E0C36001D39220121D65804890E006E040
:10058000FF12199CE433F51990E006E0FF12F080A9
:10059000E4334219E5197F0070027F018F1980242E
:1005A00090E006E0FF121B8A500512EF428015759D
:1005B00019018010121834800312F0DE12EF398016
:1005C00003851819E51965186010AB15AA16A91747
:1005D000E51911FB90E016E519F02212F1BDE0FFDC
:1005E0002212F1BDEDF0D3947F4006ED2480FE8011
:1005F000027E00EE547FFDEF7F00FEEF240BF582BC
:100600007400E1EBE51B4FF547513D54F0F0051B3D
:10061000E51BC394044003E4F51B2212E86A90E052
:10062000BBE0FFE51B12F1C8EFF090002D93547F63
:10063000FDF120240BF5827400E1EBE51B7F00FE49
:10064000EF22913EE0FF12E87812EE6BE0547FFD5E
:10065000E51BF1E1EF2410F58274003EF583E054D0
:10066000F04409F0F1202411F58274003EF583E096
:100670007480F0EF2412F58274003EF583E0E47498
:1006800018F0120F4E120D6112EE5E8002C333D8C5
:10069000FC4F900412F0F1F78005C333CE33CED86F
:1006A000F9FF90041BE0FDEF5D7004F1F480E7F1C9
:1006B00020241DF58274003EF583E020E02A12EE2E
:1006C000568005C333CE33CED8F9F1D1701AA3E0EA
:1006D000FDEF5D7013047E00A81B088005C333CEB8
:1006E00033CED8F9F1D16002C322D322FF90041196
:1006F000E0FDEF5D22547FFD90E0CFE07F00FEEF54
:10070000242FF58274003EF583E054804DF02202E0
:10071000077B74017E00A81B082290E0BEEEF0A3C8
:10072000EFF012394C90E0BEE0FEA3E0FF0237315B
:100730007FD67E1412E7FF123946400512E7F48097
:10074000F6D1568005C333CE33CED8F912E7D17037
:1007500009A3E0FDEF5D7002D322C322E490E0BB69
:10076000F090E0BBE0C3940C501912E70011155053
:10077000097F401178EF6002D32290E0BBE02403B0
:10078000F080DEC322D15E8002C333D8FC4F9004D8
:1007900012F02290E066EFF0120ECA90E05F310A8C
:1007A000547FF090E060E0547FF090E062310AFF07
:1007B00090E05FE0FEB50710A3E090E0CDF090E0A0
:1007C00062E090E0CEF0802190E062E0FD90E06099
:1007D000E0B5050A90E0CDEEF0A3EFF0800B90E0DD
:1007E0005FE090E0CDF0A3EDF090E0CEE0FF90E090
:1007F000CDE0D39F4005A3E02480F090E0CDE0FF62
:10080000A3E0FEC39FFDEE2FFFE433C313EF1354A9
:100810007FFF90E053E0D16DEFF0EDD3940A7F00BD
:100820004002AF0522E0547FF090E061E02290E0CA
:10083000BEEFF0A374F7F0A3E4F0A3F0A3F0A37469
:1008400030F0A37450F0A37404F0A3F0A3F0A374E9
:1008500001F07E007F217D0090E0BFE0FAA3E0F987
:100860007B0112036990E0C8E0700241E690E0BEAF
:10087000E0FF24D090E0C9F07127E0700A11789071
:10088000E0C9E07127EFF051F5FEEFD39E4002EF93
:10089000F090E0C2E014601C146050147002411625
:1008A0002403600241DF90E0BEE090E0CAF090E0F7
:1008B000C27401F051ECE02FFFE433FE90E0C4E09D
:1008C000FDD37113500651F5711B401890E0BEE046
:1008D00090E0C4F090E0CAE090E0BEF090E0C27416
:1008E00002F0808151ECE02FF0214A51ECE0C39FEF
:1008F000FF90E0C3E0FEEFC39E400651F5711B4040
:100900001D90E0BEE090E0C3F090E0CCF090E0C439
:10091000E00490E0CBF090E0C27403F0801390E02C
:10092000BEE0FF90E0C5E0FEC3EF9E90E0BEF02188
:100930004A90E0C3E090E0BEF090E0C4E0FF90E0B9
:10094000BEE0FED39F5046EE24D0FFE434FFFEA36A
:10095000E0FCA3E02FF582EC3EF583E0FF90E0C6DB
:10096000E0FDEF2DFFE433FE90E0C1E0FDC3711325
:10097000401490E0BEE0FF90E0CBE0D39F4002EF58
:10098000F090E0CCEFF051ECE02FF080AC90E0CBB9
:10099000E0FBFFA3E0C39FFFE49400FE90E0C5E00E
:1009A000FD7583002FF582E5833EF583ED75F0023A
:1009B000A4AEF0FDAC06AF82AE8312009390E0C50A
:1009C000E0FEEF8EF0A4FFEB2F90E0BEF0EEC3133D
:1009D000FF90E0C5F0BF0109A37401F0E490E0C20C
:1009E000F090E0C5E0700C90E0C8F090E0C27404B4
:1009F000F0214AE490E0C2F0214AE490E0C8F021FE
:100A00004A90E0BEE0FF2290E0C5E0FF90E0BE2209
:100A100090E0C9E0FF3395E0FE90E0BFE0FCA3E08A
:100A20002FF582EC3EF583E0FF90E0C1E022EF9DE0
:100A30007480F86E9822C39FFF90E0C7E0FEEFD36A
:100A40009E22FD3395E0FC90E0BFE0FAA3E02DF597
:100A500082EA3CF5832290E0BEEFF090E05CE05447
:100A60000390E0C0F090E05DE0FEA3E0FF90E0C105
:100A7000EEF0A3EFF07C007D20C004AF057D00AA5E
:100A800006F97B01D00612036971F84401F091DB8D
:100A900091FC1228CD71F8F090E0C2E02410FF9094
:100AA000E0C1E03400FE91FC1228CD90E0C0E0549B
:100AB00003FF71F84FF0E490E0BFF090E0BF710CDD
:100AC000FCA3E0B115C083C082E0FEEF2410FDE47A
:100AD00033FC90E0C1712FE0FFEE5FD082D083F055
:100AE00090E0BFE004F0E0B410D191DB240F71FF7F
:100AF000E04401F07CE07D637AE07B64B19890E0B3
:100B000063E004F0A3E004F090E063E0FFA3E0C33F
:100B10009FFF2290E05CE054FC22F582E43EF583E6
:100B200022E57525E0FFB11DC31354014F90E0CFBE
:100B3000F07E007F087D007B017AE079D4120369A2
:100B4000E575700C90E0D27404F0A3742CF0800A68
:100B500090E0D27404F0A3743EF090E0D2E0FEA3E3
:100B6000E0FFF5828E83A3A3A3E4F0EF240471FFDA
:100B7000747FF0EF240571FFE4F0EF240671FFE4C9
:100B8000F0EF240771FFE4F090E0D1F090E0D1E0C5
:100B9000FFD3947F5057EF12E7DA7B017AE079DCDC
:100BA000122ACA91EE12026250028001C392022000
:100BB000021791EE120262701091E4120292C312B7
:100BC000026250028001C3920230021990E0D1E02B
:100BD00090E0D0F090E0DC12028690E0D412029E09
:100BE00091E412029E90E0D1E004F0809F90E0D06A
:100BF000E0244002E7DA90E0C1E0FEA3E0FF2290AB
:100C0000E0E012028690E0D82290E0DC12028690AA
:100C1000E0D4120292C32290E0BEE0FBFD90E08897
:100C20007401F0A3F0A3747FF0A37401F0A3F02289
:100C30002FF582E43CF58322E57575F016A4242790
:100C4000F582E434E0F583E022E4F575B11D30E08F
:100C50004AB18AF583E020E042C220121DAF900025
:100C6000107D00E57575F016A4242AF974E035F0BE
:100C7000FA7B01AE83AF82120369123DBD12111ED1
:100C8000B11DFFC4540F20E0029106123D72D22222
:100C9000120727B18AF583E04401F00575E575C3B5
:100CA000940240A822E57575F016A42429F582E483
:100CB00034E02290E0C5ECF0A3EDF0A3EAF0A3EB62
:100CC000F090E0C3EEF0A3EFF0E4FDF97B018F823A
:100CD0008E83E033920090E0C5D14B90E0C7D14BBA
:100CE000EB547F131313541FFF90E0C3E0F8A3E00D
:100CF0002FF582E438F583E0F582758300EB540725
:100D0000FF74807E00A807088006CEA2E713CE13EA
:100D1000D8F8FFEE5583FEEF55824E24FF92013046
:100D20000002AD0330011F20001CC3EB9DFFD399CF
:100D30004014A907ED547FFF90E0C5D140EB547FEC
:100D4000FF90E0C7D140300106EBC39480500BEB1D
:100D5000F46007A20192000B808622E0F8A3E0F580
:100D6000828883EFF022E0FEA3E0F5828E83E4F038
:100D70002274107E00A81B0822900412E0FFAE1B14
:100D80007410A8060822E51B75F005A4246AF582F4
:100D9000E434E0F5832290E006E0FF120B5690E089
:100DA00053E0FD7F00FEEF2408F58274003EF583DA
:100DB000E01313135401FCEF2409F58274003EF58F
:100DC00083E054014C5401FCED7F00FEEF240FF54D
:100DD0008274003EF583E054FE4CF022A202E4331C
:100DE0005401FFE57654FE4FF57630E04B900479E0
:100DF000E054F7F0F12E500C900423E05403F51A60
:100E0000E04403F0900422E04401F0F12512278C25
:100E100050FB121E26F12E500DE51A5403FF9004CC
:100E200023E054FC4FF0F12512278C50FB121E26B4
:100E3000900422E054FEF022900479E04408F0226D
:100E4000C2217F0A7E010236E6AF76EFC413540753
:100E5000D3940222752601E4F527F52822E4FD74D7
:100E6000017E00A805088005C333CE33CED8F9FF34
:100E7000E528540FFBEF5B70040DBD04E20DED7F20
:100E8000017001FFEF540125E025E0FF900477E0B9
:100E900054FB4FF0EDD394017F0150027F00F1C568
:100EA000FF900477E054F74FF0EDD394027F0150A8
:100EB000027F00EFF1BE900477E054EF4FF0EDD3E6
:100EC00094037F0150027F00EF5401C43354E0FFCC
:100ED000900477E054DF4FF0225401C454F0FF2215
:100EE000EF540133333354F822F0E054EFF0E05480
:100EF000DFF022E04401F0E04402F0E04404F0E0DE
:100F00004408F0E04410F0E04420F022EF243FF5E4
:100F10008274003EF583E022000000000000000023
:100F200000000000000000000000000000000000C1
:100F300000000000000000000000000000000000B1
:100F400000000000000000000000000000000000A1
:100F50000000000000000000000000000000000091
:100F60000000000000000000000000000000000081
:100F70000000000000000000000000000000000071
:100F80000000000000000000000000000000000061
:100F90000000000000000000000000D2028F26EFD9
:100FA00024FB601124FB600D14600A1460101460AF
:100FB0000F24097040900478E04420F08039C20288
:100FC00090041CE04410F0900477E054FDF0E054ED
:100FD000FBF0E054F712EFCEA202E43312EFBE9022
:100FE000041FE054EF4FF0900477E04440F0A3E09A
:100FF00054FEF08002C322D322E4FDED7F00FEEF19
:10100000243EF58274003EF583E054804418F012CB
:10101000EFF154EFF0ED7F00FE12EFF14440F0EFFE
:101020002441F58274003EF583E04420F0ED7F001A
:10103000FEEF2442F58274003EF583E04410F00D8B
:10104000BD04B890041CE054F0440412EFCEE05408
:10105000BFF0A3E054EFF090041FE054EFF09004D1
:1010600023E0540F4440F090042C31B090043E3102
:10107000B090047712EFD8E04440F0A312EFD8907C
:10108000047AE04402F0E0440402EFE77E007F3F90
:10109000C006C0077D00E51B75F03FA4251DFFE5D8
:1010A000F0351CFAA9077B01D007D006120369129C
:1010B000E43E744012E44EE4F0A3F022ED7F00FE23
:1010C000EF241FF58274003EF58322E054FEF0E029
:1010D00054F9F0E054BFF02274F02FF582E434E0CC
:1010E000F5832225E024A5F582E434E0F58322EFA0
:1010F0002421F58274003EF583E022FE90E0B6E004
:10110000FBEBF5828E8322A3E08FF0A4FFAEF022EA
:10111000E054FE4EF0EC7F002290E05D74F2F0A30C
:10112000E4F022751CF4751D00E4F51BFFEF12E2DC
:101130004454F0F031BDE4F00FBF04F122432D031D
:101140007530F275314F432D0C7532E175330DE575
:101150002E54CF4410F52E753CE4753D72E546B42F
:101160000F0790F600E4F0A3F022120787718E714A
:101170005231FE12EF395108E490E0B4F0E54664D4
:10118000FE6007E546F460026151E54690E0B9B4BF
:10119000FE0474F6800274F0F0A3E4F090E0B46111
:1011A0002B90E0B7E07002615190E0B5E0D3940578
:1011B0004002615190E0B4E0F990E0B7E075F002D0
:1011C000A4FF90E0B4E07C002FFFEC35F0FEE9C313
:1011D0009FEE6480F8748098506790E0B9E0FEA3B9
:1011E000E0FF2912EBFFE090E0B6F090E0B5E0FD03
:1011F000D394045018E92401FBE433FAEF2BF58271
:10120000EE3AF583E0FCED31E0ECF0803090E0B5B3
:10121000E06405702890E0B8F090E0B8E0FFC39477
:1012200004501AE92401FDE433FCA312EB2FE0FD86
:10123000EF31E0EDF090E0B8E004F080DC09094126
:101240009E90E0B4E9F0E0FF04F090E0B9E0FCA388
:10125000E0FD12ED15E090E0B7F090E0B4E0FF049F
:10126000F0ED12ED15E090E0B5F0418622900420FB
:10127000E04430F0900461E054E04411F0900463E5
:10128000E054C04417F090046BE054C04430F09038
:10129000048EE0B40C089004687423F0A3F090046A
:1012A00019E054FCF0E4F54722E4FD90048EE0B42C
:1012B000080831A1E0441FF0803031A1E0541F2420
:1012C0000AFBE433FAD3EB941FEA64809480400471
:1012D0007F1F800B741F2F31A8E0541F240AFFEFDB
:1012E000541FFC31A1E054E04CF0ED7F00FEEF24F0
:1012F00026F58274003EF5837435F0EF2423F582E1
:1013000074003EF583E04401F07F0031D454E044A2
:1013100010F031D4541F4480F0ED5403FCED7F00F5
:10132000FEEF2422F58274003EF583E054FC4CF07D
:0B1330000DED640460026190220000DB
:00000001FF
