:10000000474E3231303401450143E0F913AB8302EE
:10001000F2E701450143BB010689828A83F0225041
:1000200002F722BBFE01F32212077B12302E311D94
:1000300002070D90E053E521F031FE540F1203103A
:10004000E14C00E15E01E17F02E19C03E1AD04E1EE
:10005000AD05E1BE06E1C907E1DA08E1E509000006
:10006000E1E7E52112F286E0700221EE31FC54F066
:100070004401F022900476E0701912EE9D243CF5C4
:100080008274003EF583E0700AD1FD31FC54F044E7
:1000900002F022806F12EF4A8005C333CE33CED8F0
:1000A000F912EC87700831FC54F04403F0227F60B1
:1000B000803C12EA48500831FC54F04404F0227F9E
:1000C00064802B12E848500831FC54F04406F022BA
:1000D0007F68801A12E92A31FC54F04407F022129A
:1000E000EBC3500831FC54F04408F0227F6C80319F
:1000F000AF21513031FC54F04409F0800731FC54F9
:10010000F0440AF00521E521C394044003E4F521FD
:1001100022F0E52125E024A4F582E434E0F583E033
:1001200022E5214FF547E521F1F6EFF0AF215130FF
:1001300090E0D7E0600731FC54F0F0800731FC54C8
:10014000F0440AF080BEAD07ED31FEFFC413540742
:100150006014EF5410C4540FFCEDF176D1F64CF05E
:10016000ED31FE541FF09004B6E0B42B0312F2A65A
:10017000228F1D8D1E5130E51D12F286E51EF0E521
:100180001DF1F6E4F0E51D31FE54F0F0228B168AE5
:10019000178918120046F519E4F1EEF51CE519541B
:1001A000FE7002C10AE519120310E2E611E2ED1237
:1001B000E30514E30B15E32916E34B17E35318E3A8
:1001C0007942E39943E3A948E3B350E40F51E45D76
:1001D00052E4A758E4C45AE4E95EE4F660E5156425
:1001E000E52865E52C66E55A6DE5886EE59280E5C3
:1001F0009D81E5A882E5CC830000E5F190E0D7EF92
:10020000F0A1F47D01E4FF515B7D017F01515B7D35
:10021000017F02515B7D017F03804A7D01AF1C801D
:100220004490E0DFE090E017F090E0E3E090E01829
:10023000F090E0E7E090E019F090E0EBE0804A9089
:10024000E006E090E0D8F090E007E090E0D9F09090
:10025000E008E090E0DBF090E009E090E0DAF0A167
:10026000F4E4FDAF1C515BA1F490E0FCE49390E05A
:1002700017F090E0FDE49390E018F090E0FEE49336
:1002800090E019F090E0FFE49390E01AF0A1F4F10F
:10029000A2EFF07EE07F067CE07D1712144E12EF95
:1002A00052F1C712EF6854DF4DF012EA94A1F4F155
:1002B000A2EFF07EE07F17122BE012EA84A1F49007
:1002C000E006E090E0F4F0A1F430041890E006E0DD
:1002D00030E105A3E06401F090E006E030E505A31D
:1002E000E06402F090E006E0FE540F90E027F0EEAC
:1002F000C4540F90E03DF090E007E0FC7E0030E059
:10030000027E01EEF1DEFE90042CE054F74EF0EC9C
:100310007F0030E1027F01EFF1DEFF90043EE05408
:10032000F74FF0819F90E03DE0C454F0FF90E0274C
:10033000E0540F4F90E017F090043EE01313135475
:100340000125E0FF90042CE013131354014F90E0BB
:1003500018F0200402A1F490E017E030E105A3E0DA
:100360006401F090E017E020E502A1F4A3E064024C
:10037000F0A1F490E006E0FC5401FE90E02712F2B8
:10038000DE30E1027F01F1D690E027E054EF4FF03C
:1003900090E006E0FC7E0030E4027E01EE5401FEB7
:1003A00090E03D12F2DE30E5027F01F1D690E03DB3
:1003B000E054EF4FF012EEE312113CA1F490E0068E
:1003C000E0FF121CE290048EE064086002A1F49049
:1003D000E006E0C330E001D3800F90048EE0B40863
:1003E0000F90E006E0C36001D3920212F0DEA1F4A8
:1003F00090E006E0C36001D39220121D65A1F49045
:10040000E006E0FF121C1A12EF9BA1F490E006E058
:10041000FF12199CE433F1EE12F152E433421AE573
:100420001A7F0070027F018F1AA1F490E006E0FFAE
:10043000121B8A5004D153A1F4751A01A1F4D202FF
:10044000805E20040790048EE0B4802290E006E0F5
:10045000900037F090E007E0900137F090E008E07E
:10046000900237F090E009E0900337F0A1F4A1F199
:1004700020040790048EE0B48022900037E090E0E2
:1004800017F0900137E090E018F0900237E090E02C
:1004900019F0900337E090E01AF0806E8069C20294
:1004A00012F1C312EF93806290E007E0FDAF1CD120
:1004B0000B80577B017AE0791712EFC0804C200344
:1004C00004F1CF701B90E007E0F51BE51BF1E6E5BA
:1004D0001B543EC3134FF51B12F2B6E51BF0802AE6
:1004E0008025200304F1CF701C12F2B6E0F51B54F6
:1004F0001F25E0FFE51B5420C41354074FF51B9044
:10050000E017F08005800085191AE51A651960105A
:10051000AB16AA17A918E51A310090E016E51AF0F3
:1005200022AC07ED7F0060027F01AD07200404F1DB
:10053000CF702BEC30E009ED7F0070027F0180026C
:10054000AF05EFD1E84BF0EC30E009ED7F00700231
:100550007F018002AF05EF540112F26DF022EDD160
:10056000E84BF0EB12F26DF022E4FD74017E00A87E
:1005700005088005C333CE33CED8F9FFE528540FE4
:10058000FBEF5B70040DBD04E20DED7F017001FF18
:10059000EF540125E025E0FF900477E054FB4FF095
:1005A000EDD394017F0150027F00EFF1DEFF900454
:1005B00077E054F74FF0EDD394027F0150027F00B3
:1005C000F1D6900477E054EF4FF0EDD394037F0120
:1005D00050027F00EFF1E6900477E054DF4FF0D156
:1005E000DDE4FFD1DB7F01D1DB7F02D1DB7F03C103
:1005F0000BD10BAF28EFC41313135401FD22540188
:10060000FBEC7F00FEEF2409F58274003EF583E0E9
:1006100054FE229004B6E0B42B0312F2A67E007FB3
:100620002AC006C0077D00E52175F02AA42523FF16
:10063000E5F03522FAA9077B01D007D0061203693D
:1006400012E91AE4F0A3F0AF21120B56F181122D3A
:10065000AC900404E0440131FBFDC4135407702B3B
:10066000E521F1763EF583E05401C454F0FCE52128
:1006700025E024A4F582E434E0F583ED54EF4CF05A
:10068000F179D1F631FB541F4420F0227F00FEEFB8
:10069000243DF58274002290E053E07F00FEEF24B9
:1006A00009F58274003EF583E05401FDEF240FF557
:1006B000827400D1F64DF022AF1C120B56F181125C
:1006C000EAE890E053E0FD7F00FEEF2441F58274FC
:1006D000003EF583E0C4135401FF74EC2DF582E471
:1006E00034E0F5832290048EE0648022EF5401C44C
:1006F00054F0FF22540133333354F8225401C433ED
:1007000054E0FF22F51A90E006E0FF2225E025E004
:1007100024DFF582E434E0F58322D1B412394C9021
:10072000E0B7E0FEA3E0FF12373112394640051270
:10073000077B80F622513990E0B4E0FF51177FD655
:100740007E141104D1AC8005C333CE33CED8F991D9
:10075000877009A3E0FDEF5D7002D322C322E4900D
:10076000E0B5F0A3F05172111F506E7F4071373128
:1007700005C083C08290E0B4E0D082D0833113EF13
:10078000F0E5219199E0FF91A73105C083C08290E7
:10079000E0B4E0FED082D0833113A3EFF0310575D1
:1007A000F002EE11FFC083C08290E0B4E0D082D0AE
:1007B000833113D1A490E0B5EEF0A3EF3119E0FC42
:1007C000A3E0C39FEC9E503190E0B5E0FEA3E0FFB4
:1007D000311AEEF0A3EFF080203105C083C0829083
:1007E000E0B4E0FFD082D083311374FFF03105759F
:1007F000F002EF1202DBA3E4F090E0B4E004F0E0DA
:10080000C39415500201515184311AE0FEA3E04E09
:10081000C36001D3221202DBA3E0FF85238285227D
:100820008375F02AE5210202DB75F0020202DBF09B
:10083000E52125E025E024DDF582E434E0F583229E
:1008400090E0B57415F0E4A3F0A374153119E0FE3F
:10085000A3E0FF7C007D0412033CE47B64FAF9F81A
:100860001201B590E0B8EEF0A3EFF0E490E0B4F040
:1008700090E0B4E0FFC394155065310575F002EFC8
:1008800011FFC083C08290E0B4E0F9D082D0833100
:1008900013D1A490E0B9E02FFD90E0B8E03EFC3128
:1008A0001AE0FAA3E0D39DEA9C501590E0B5E099D8
:1008B000400690E0B4E0A3F090E0B4E090E0B6F041
:1008C00090E0B6E06011A3E0B4150CEF4E70089014
:1008D000E0B4E090E0B7F090E0B4E004F0809190F4
:1008E000E0B5E0FF700790E0B4EFF0803B90E0D817
:1008F000E0FF90E0B5E02F90E0B4F0D39414400313
:100900007414F090E0B7E0FF90E0B4E0C39F4018AB
:1009100090E0D9E0FEEF9EFF90E0B4F0C374FF9E3C
:10092000FEEFD39E4002E4F090E0B4E0FFE5212525
:10093000E024A5F582E434E0F583EFF090002D93F8
:10094000FDD19D240BF58274003EF583EDF022D19C
:10095000C6088002C333D8FC4F900412F022C200B4
:10096000517290E0B4E0C3940C5018111F500B7FEB
:10097000407137EF6004D200800990E0B4E02403B6
:10098000F080DF5184A20022517AE490E0B4F0229A
:1009900012E7A9EFF0C220020871D220120871F10B
:1009A0005212E7C7F16854DF4DF012E7CF703B51A8
:1009B000D5E090E0F7F0D1BDF583E090E0F8F0806D
:1009C0002190E0F8E0FDFF90E0F7E0FB3395E0FADE
:1009D000C3EB9F7480F86A98401090E053E051DABE
:1009E000EDF090E0F7E014F080D72290E053E0FDC6
:1009F0007F00FEEF241FF58274003EF5832212E78C
:100A0000CF704951D5E090E0F5F0E0FFD1BDF5831E
:100A1000EFF090E0F4E0FEFDEF2DF15A40047F1F6F
:100A2000800690E0F5E02EFF90E0F6EFF080159064
:100A3000E0F6E0FD90E0F5E0D39D501090E053E04B
:100A400051DAEDF090E0F5E004F080E32290E0660A
:100A5000EFF0120ECA90E05F9190547FF090E0604A
:100A6000E0547FF090E0629190FF90E05FE0FEB58F
:100A70000710A3E090E0B7F090E062E090E0B8F0FB
:100A8000801B90E062E0FD90E060E0B50504D1B429
:100A9000800B90E05FE090E0B7F0A3EDF090E0B85D
:100AA000E0FF90E0B7E0D39F4005A3E02480F09002
:100AB000E0B7E0FFA3E0FEC39FFDEE2FFFE433C3EA
:100AC00013EF13547FFF90E053E09199EFF0EDD3D3
:100AD000940A7F004002AF0522D200517A7F407114
:100AE00037E5219199E0FDE521D151EF2410F58200
:100AF00074003EF5837409F090E0DAE0FDEF241114
:100B0000F58274003EF583EDF090E0DBE0FDEF242C
:100B100012F58274003EF583EDF0EF2413F5827434
:100B2000003EF583E4F02414F58274003EF583E47E
:100B3000F0120F4E120D61D1C6088002C333D8FCEB
:100B40004F900412F0F14A8005C333CE33CED8F96A
:100B5000FF90041BE0FDEF5D700512077B80E6D17E
:100B60009D241DF58274003EF583E07029D1AC8090
:100B700005C333CE33CED8F99187701AA3E0FDEFC9
:100B80005D7013047E00A821088005C333CE33CEE8
:100B9000D8F991876002C2005184A20022FF90041C
:100BA00011E0FDEF5D22E0547FF090E061E02275FE
:100BB000F005A4246AF582E434E0F5832290E0B7DE
:100BC000EFF090E05CE0540390E0B9F090E05DE07D
:100BD000FEA3E0FF90E0BAEEF0A3EFF07C007D20F2
:100BE000C004AF057D00AA06F97B01D00612036997
:100BF000B1774401F0D171D1841228CDB177F09052
:100C0000E0BBE02410FF90E0BAE03400FED1841293
:100C100028CD90E0B9E05403FFB1774FF0E490E0C5
:100C2000B8F090E0B8E0FF90E0BAE0FCA3E02FF568
:100C300082E43CF583C083C082E0FEEF2410FDE433
:100C400033FC90E0BAE0FAA3E02DF582EA3CF583AC
:100C5000E0FFEE5FD082D083F090E0B8E004F0E0F7
:100C6000B410BFD171240FB17EE04401F07CE07D6F
:100C7000637AE07B6412F03090E063E004F0A3E07C
:100C800004F090E063E0FFA3E0C39FFF2290E05CEC
:100C9000E054FC22F582E43EF58322E57525E0FF71
:100CA000D1D2C31354014F90E0C2F07E007F087D83
:100CB000007B017AE079C7120369E575700C90E05A
:100CC000C57404F0A3742CF0800A90E0C57404F09D
:100CD000A3743EF090E0C5E0FEA3E0FFF5828E83B2
:100CE000A3A3A3E4F0EF2404B17E747FF0EF240506
:100CF000B17EE4F0EF2406B17EE4F0EF2407B17E8C
:100D0000E4F090E0C4F090E0C4E0FDD3947F504A5A
:100D1000D14D7B017AE079CF122ACAD1615002808D
:100D200001C3920220020FD161700BD17AD16A50B7
:100D3000028001C3920230021990E0C4E090E0C347
:100D4000F090E0CF12028690E0C712029ED17A1294
:100D5000029E90E0C4E004F080AC90E0C3E0244048
:100D6000547FFD90E0C2E07F00FEEF242FF58274F7
:100D7000003EF583EDF02290E0CF12028690E0C7AE
:100D8000120292C302026290E0BAE0FEA3E0FF22E8
:100D900090E0D312028690E0CB2290E0B7E0FBFD1A
:100DA00090E0887401F0A3F0A3747FF0A37401F0C5
:100DB000A3F022E5217F00FEEF22E08FF0A4FFAE3A
:100DC000F02274107E00A821082290E0B7EEF0A374
:100DD000EFF02274F02DF582E434E022900412E06A
:100DE000FFAE217410A80622E57575F016A424271D
:100DF000F582E434E0F583E022E4F575D1D230E009
:100E000044F13920E03FC220121DAF9000107D0058
:100E1000E57575F016A4242AF974E035F0FA7B0123
:100E2000AE83AF82120369123DBD12111ED1D2FFF3
:100E3000C4540F20E002B185123D72D2221207275E
:100E4000F1394401F00575E575C3940240AE22E521
:100E50007575F016A42429F582E434E0F583E022C8
:100E600074017E00A821082290E053E0FF24EC22C8
:100E7000FDE433FCD3ED941FEC6480948022E054B5
:100E800001C43354E0FDEF7F00FEEF2441F582748E
:100E9000003EF583E022E0F8A3E0F5828883EF22AC
:100EA000AF76EFC4135407D322752601E4F527F576
:100EB00028E4FD7F03302F027F02EF5403FCED7F17
:100EC00000FEEF2406F58274003EF583E054FC4CEE
:100ED000F00DBD04DE2220040512E7CF701C12F2D3
:100EE000C67F0070027F01900001EF12F2947F0034
:100EF00070027F01900003EF800C12F2C690000197
:100F000012F29490000302005F0000000000000055
:100F100000000000000000000000000000000000D1
:100F200000000000000000000000000000000000C1
:100F300000000000000000000000000000000000B1
:100F400000000000000090E0BEECF0A3EDF0A3EA8A
:100F5000F0A3EBF090E0BCEEF0A3EFF0E4FDF97B42
:100F6000018F828E83E033920090E0BE31AFF0902B
:100F7000E0C031AFF0EB547F131313541FFF90E028
:100F8000BCE0F8A3E02FF582E438F583E0F5827544
:100F90008300EB5407FF74807E00A807088006CE0C
:100FA000A2E713CE13D8F8FFEE5583FEEF55824E1D
:100FB00024FF9201300002AD03300123200020C342
:100FC000EB9DFFD3994018A907ED547FFF90E0BE39
:100FD00012EF80F0EB547FFF90E0C012EF80F03012
:100FE0000106EBC39480500BEBF46007A201920062
:100FF0000B808222A202E4335401FFE57654FE4FB7
:10100000F57630E05B900479E054F7F012EF8A94C3
:1010100002500C900423E05403F51DE04403F090CB
:1010200004227401F0C2217F0AFE1236E612278CD8
:1010300050FB121E2612EF8A9402500DE51D540338
:10104000FF900423E054FC4FF0C2217F0A7E01127E
:1010500036E612278C50FB121E26E4900422F02262
:10106000900479E04408F022D2028F26EF24FB603E
:101070001124FB600D14600A14601014600F240921
:10108000703F900478E04420F08038C20290041C45
:10109000E04410F0900477E054FDF0E054FBF0E001
:1010A00054F731B9A202E43312E7D790041FE05499
:1010B000EF4FF0900477E04440F0A3E054FEF0805E
:1010C00002C322D322E0FEA3E0F5828E83E422F065
:1010D000E054EFF0E054DFF022E4FA300207AF0210
:1010E000E4FD12E60BEA7F00FEEF243EF582740079
:1010F0003EF5837418F0516154EFF07F0051614464
:1011000040F012EF744420F0EA7F00FEEF2442F535
:101110008274003EF583E04410F00ABA04BD9004E6
:101120001CE054F0440431B9E054BFF0A3E054EFA4
:10113000F090041FE054EFF0900423E0540F44407B
:10114000F090042C5155F090043E5155F0900477E6
:10115000747FF0A3743FF090047AE04402F0E0441E
:1011600004F0E04410F0E04420F022E054FEF0E00F
:1011700054F9F0E054BF22EF243FF58274003EF5AD
:1011800083E02233333354F8FDEC7F00FEEF240874
:10119000F58274003EF583E054F74D2225E025E00A
:1011A00024DCF582E434E0F5832212005F9002092A
:1011B000E090000212005F900309E022900492E0A8
:1011C0005401F45401FFE054FE4FF022E51C7F006F
:1011D000FEEF2401F58274003EF58322900009E0C1
:1011E00012E100900109E022EF2431F58274003E03
:1011F000F583E022E054FE4EF0EC7F0022752D0FC7
:10120000752E107530F375310C7532E1753312752A
:101210003CE2753D77E546B40F0790F600E4F0A395
:10122000F0221207879004B5E0C330E601D39204A0
:101230009004B5E0C330E701D39203717591169124
:101240008512EF937522F3752320E4F52190E0D702
:1012500004F0A37405F0A37403F0A37420F0A37446
:1012600006F0E4FFEF25E025E024DC306107518C37
:101270007401F08004518CE4F0EF12E1FE54F0F0C0
:10128000EF12E7F6E4F00FBF04DA22E4F515E4FD0F
:10129000AF1512E60B90048EE0B4080AE51512EAC9
:1012A000DA741FF0802712E7CF6022E51512EADA20
:1012B000E0240A12EF5A40047D1F800A741F2F1287
:1012C000EAE0E0240AFDE51512EADAEDF0E5157F23
:1012D00000FEEF2421F58274003EF5837490F0EF58
:1012E0002422F58274003EF583E515F0EF2423F502
:1012F0008274003EF5837401F0EF2426F5827400B9
:101300003EF5837435F090048EE0B4800951D254D8
:10131000F34408F0800AE5157F00FE51D2440CF03A
:101320000515E515C39404500261782290048EE0FF
:10133000B4801E9004027401F090045FF090047574
:10134000742DF0E4A3F090047CE054FDF0A374014C
:10135000F09004137401F0900420E04430F0900405
:1013600029741BF09004617411F090048EE09004D5
:1013700063B48005740FF080037417F090048EE05E
:10138000C3940C40089004687423F0A3F090046B9D
:101390007430F0E4900419F0F5472290E058747E20
:1013A000F090E05AE4F0A37460F090E05D74F3F024
:0C13B000A3E4F090E0F4740AF0220000C6
:00000001FF
